:100000000C942A000C943F000C943F000C943F0089
:100010000C943F000C943F000C943F000C943F0064
:100020000C943F000C943F000C943F000C943F0054
:100030000C943F000C943F000C943F000C943F0044
:100040000C943F000C943F000C943F000C943F0034
:100050000C943F0011241FBECFE5D8E0DEBFCDBF1A
:1000600010E0A0E6B0E0E0E7F1E002C005900D92FC
:10007000AC36B107D9F70E949E000C94B6000C94E0
:100080000000413069F4E82FF0E0218181E090E048
:1000900002C0880F991F6A95E2F7822B8183089529
:1000A000E82FF0E0218181E090E002C0880F991FE5
:1000B0006A95E2F78095822381830895E82FF0E026
:1000C000828121E030E002C0220F331F6A95E2F7FF
:1000D0002095282322830895E82FF0E0828121E0F3
:1000E00030E002C0220F331F6A95E2F728272283EF
:1000F000089589E189B910BC8AB188618AB980B54F
:10010000866080BD08955F9BFECF8CB108955D9B96
:10011000FECF8CB908950F931F93CF938C01C0E04D
:1001200003C00E948700CF5FF801EC0FF11D8081B2
:100130008111F7CFCF911F910F91089541E064E0B5
:1001400080E30E94410064E080E30E945E000E9420
:1001500079000E9483008133E1F764E080E30E942C
:100160006C0080E690E00E948B00F3CFF894FFCF04
:0C017000546F67676C65204C454400002C
:00000001FF
